:100000001CC0000000000000000000000000000014
:1000100000000000000000000000000000000000E0
:1000200000000000000000000C9450000C943D0003
:10003000000000000C941C00189508E00EBF0FEFA4
:100040000DBF00E00093C1000C94260040E050E09A
:1000500099276627289A00270093800008E10093DB
:10006000890000270093880002E200936F000DE8EA
:100070000093810033277894FFCF0F930FB70F932E
:100080000091810006FF02C03FEF06C001E005B904
:100090009AB94427552766270F910FBF0F911895DE
:1000A0008F928FB68F9280908600809087001F93EA
:1000B0001829132F182979F0112710938500109310
:1000C00084001091810016FF03C00AD01F7B01C07D
:1000D0001064109381001F918F908FBE8F901895A0
:1000E0000F93332319F40CE08016A8F099279AB9DE
:1000F00001E005B96627640F650F613031F06330A8
:1001000031F0673031F053951BC0526019C0546014
:1001100017C0586015C099279AB901E005B966273C
:10012000640F650F613031F0633031F0673031F0CA
:10013000439506C0426004C0446002C0486000C0ED
:10014000413039F4503029F401E005B9992798EF8E
:10015000E5C0403039F4513029F401E005B9992760
:1001600098E7DCC0413039F4523029F401E005B998
:10017000992796EFD3C0423039F4513029F401E089
:1001800005B9992794E5CAC0433039F4503029F4B1
:1001900001E005B9992796E0C1C0403039F45330E9
:1001A00029F401E005B9992794E9B8C0463039F43B
:1001B000513029F401E005B999279EE5AFC04430DC
:1001C00039F4533029F401E005B999279EEEA6C011
:1001D000423039F4553029F401E005B999279AE7FE
:1001E0009DC0403039F4573029F401E005B9992712
:1001F0009EEB94C0453039F4523029F401E005B942
:10020000992790E58BC0473039F4503029F401E04C
:1002100005B999279CEE82C0433039F4543029F453
:1002200001E005B999279EE379C0413039F4563091
:1002300029F401E005B999279AE270C04E3039F4EB
:10024000513029F401E005B999279CE767C04A308D
:1002500039F4553029F401E005B9992798EB5EC0CF
:100260004B3039F4543029F401E005B9992790EF67
:1002700055C04F3039F4503029F401E005B99927C1
:1002800094E74CC0413039F45E3029F401E005B9FF
:1002900099279EE043C04D3039F4523029F401E0F3
:1002A00005B9992798E33AC0493039F4563029F412
:1002B00001E005B9992792EF31C0443039F45B3041
:1002C00029F401E005B9992796EE28C0473039F4A2
:1002D000583029F401E005B9992792E61FC046304D
:1002E00039F4593029F401E005B9992796E716C089
:1002F000423039F45D3029F401E005B999279EE6D2
:100300000DC04C3039F4533029F401E005B9992778
:100310009AED04C001E005B99EEC00C00F913327AF
:0203200008953E
:00000001FF
